8=FIX.4.4|9=73|35=A|34=1|49=FIXSIM|52=20180109-00:00:03.618|56=QFSAMPLE|98=0|108=30|141=Y|10=140|
8=FIX.4.4|9=232|35=8|34=242|49=FIXSIM|52=20180109-07:01:01.905|56=QFSAMPLE|1=TEST1234|6=0|11=QO37NA54U3C8NTYKHDT15N4_0|14=0|17=2636510780617342000|31=0|32=0|37=2636510780617342000|38=100|39=0|54=1|55=0700|60=20180109-07:01:01|150=0|151=100|207=HKE|10=226|
8=FIX.4.4|9=232|35=8|34=242|49=FIXSIM|52=20180109-07:01:02.905|56=QFSAMPLE|1=TEST1234|6=10|11=QO37NA54U3C8NTYKHDT15N4_0|14=20|17=2636510780617342000|31=10|32=20|37=2636510780617342000|38=100|39=0|54=1|55=0700|60=20180109-07:01:02|150=F|151=80|207=HKE|10=226|
8=FIX.4.4|9=232|35=8|34=242|49=FIXSIM|52=20180109-07:01:03.905|56=QFSAMPLE|1=TEST1234|6=10|11=QO37NA54U3C8NTYKHDT15N4_0|14=40|17=2636510780617342000|31=10|32=20|37=2636510780617342000|38=100|39=0|54=1|55=0700|60=20180109-07:01:03|150=F|151=60|207=HKE|10=226|
8=FIX.4.4|9=232|35=8|34=242|49=FIXSIM|52=20180109-07:01:04.905|56=QFSAMPLE|1=TEST1234|6=10|11=QO37NA54U3C8NTYKHDT15N4_0|14=60|17=2636510780617342000|31=10|32=20|37=2636510780617342000|38=100|39=0|54=1|55=0700|60=20180109-07:01:04|150=F|151=40|207=HKE|10=226|
8=FIX.4.4|9=232|35=8|34=242|49=FIXSIM|52=20180109-07:01:04.905|56=QFSAMPLE|1=TEST1234|6=10|11=QO37NA54U3C8NTYKHDT15N4_0|14=80|17=2636510780617342000|31=10|32=20|37=2636510780617342000|38=100|39=0|54=1|55=0700|60=20180109-07:01:04|150=F|151=20|207=HKE|10=226|
8=FIX.4.4|9=232|35=8|34=242|49=FIXSIM|52=20180109-07:01:04.905|56=QFSAMPLE|1=TEST1234|6=10|11=QO37NA54U3C8NTYKHDT15N4_0|14=100|17=2636510780617342000|31=10|32=20|37=2636510780617342000|38=100|39=0|54=1|55=0700|60=20180109-07:01:04|150=F|151=0|207=HKE|10=226|
